:020000040000FA
:100000000C945D000C9485000C9485000C94850084
:100010000C9485000C9485000C9485000C9485004C
:100020000C9485000C9485000C9485000C9485003C
:100030000C9485000C9485000C9485000C9485002C
:100040000C94F4030C9485000C9464040C943E040A
:100050000C9485000C9485000C9485000C9485000C
:100060000C9485000C9485000000000024002700FB
:100070002A0000000000250028002B0004040404CE
:100080000404040402020202020203030303030342
:10009000010204081020408001020408102001021F
:1000A00004081020000000080002010000030407FB
:1000B0000000000000000000EA0911241FBECFEF7D
:1000C000D8E0DEBFCDBF22E0AEEEB1E001C01D92B0
:1000D000AF3AB207E1F711E0A0E0B1E0E2EEF9E1FA
:1000E00002C005900D92AE3EB107D9F710E0CDE504
:1000F000D0E004C02197FE010E94E00ACC35D10770
:10010000C9F70E9496040C94EF0C0C94000090E048
:10011000FC01EC55FF4F2491FC01E057FF4F349157
:10012000FC01E458FF4FE491EE23C9F0222339F09B
:10013000233001F1A8F4213019F1223029F1F0E047
:10014000EE0FFF1FEE58FF4FA591B4918FB7F894B3
:10015000EC91611126C030953E233C938FBF0895EA
:100160002730A9F02830C9F0243049F78091800069
:100170008F7D03C0809180008F7780938000DFCFD8
:1001800084B58F7784BDDBCF84B58F7DFBCF809125
:10019000B0008F778093B000D2CF8091B0008F7D78
:1001A000F9CF3E2BDACF0895AF92BF92CF92DF9274
:1001B000EF92FF920F931F93CF93DF936C017B011C
:1001C0008B01040F151FEB015E01AE18BF08C017AD
:1001D000D10759F06991D601ED91FC910190F08120
:1001E000E02DC6010995892B79F7C501DF91CF91E3
:1001F0001F910F91FF90EF90DF90CF90BF90AF9045
:100200000895FC0144815581608171818EE092E006
:100210000C94D400FC01538D448D252F30E0842FA5
:1002200090E0821B930B541710F0CF96089501971E
:100230000895FC01918D828D981761F0A28DAE0F0B
:10024000BF2FB11D5D968C91928D9F5F9F73928F92
:1002500090E008958FEF9FEF08952FB7F894809165
:100260000A0290910B02A0910C02B0910D022FBFD7
:100270008093160290931702A0931802B09319026C
:100280008EE092E00E94190197FF26C02FB7F894E4
:1002900080910A0290910B02A0910C02B0910D0284
:1002A0002FBF409116025091170260911802709171
:1002B0001902841B950BA60BB70B409112025091AB
:1002C0001302609114027091150284179507A60716
:1002D000B707B0F28FEF9FEF0895FC01918D828DEB
:1002E000981731F0828DE80FF11D858D90E008950B
:1002F0008FEF9FEF0895FC01918D228D892F90E063
:10030000805C9F4F821B91098F73992708958EE01F
:1003100092E00E947B0121E0892B09F420E0822FEA
:10032000089580E090E0892B29F00E9487018111D7
:100330000C9400000895FC01A48DA80FB92FB11DE5
:10034000A35ABF4F2C91848D90E001968F7399270B
:10035000848FA689B7892C93A089B1898C918370E9
:1003600080648C93938D848D981306C00288F389E2
:10037000E02D80818F7D80830895EF92FF920F930F
:100380001F93CF93DF93EC0181E0888F9B8D8C8D41
:1003900098131AC0E889F989808185FF15C09FB735
:1003A000F894EE89FF896083E889F98980818370F8
:1003B000806480839FBF81E090E0DF91CF911F91A7
:1003C0000F91FF90EF900895F62E0B8D10E00F5FC8
:1003D0001F4F0F731127E02E8C8D8E110CC00FB69E
:1003E00007FCFACFE889F989808185FFF5CFCE0136
:1003F0000E949B01F1CFEB8DEC0FFD2FF11DE35A15
:10040000FF4FF0829FB7F8940B8FEA89FB898081B8
:100410008062CFCFCF93DF93EC01888D8823B9F032
:10042000AA89BB89E889F9898C9185FD03C08081FF
:1004300086FD0DC00FB607FCF7CF8C9185FFF2CF7C
:10044000808185FFEDCFCE010E949B01E9CFDF9136
:10045000CF910895CF93DF9380910801882309F409
:100460006EC0C091F501D091F60161E0C130D105B7
:1004700009F060E082E00E94870061E0C230D105AF
:1004800009F060E083E00E94870061E0CD2B09F075
:1004900060E084E00E948700C091F301D091F401F4
:1004A00061E0C130D10509F060E085E00E9487007D
:1004B00061E0C230D10509F060E086E00E9487006B
:1004C00061E0CD2B09F060E087E00E948700C091D9
:1004D000F101D091F20161E0C130D10509F060E095
:1004E00088E00E94870061E0C230D10509F060E039
:1004F00089E00E94870061E0CD2B09F060E08AE08E
:100500000E948700C091EF01D091F00161E0C130FD
:10051000D10509F060E08BE00E94870061E0C23005
:10052000D10509F060E08CE00E94870061E0CD2BEE
:1005300009F060E08DE0DF91CF910C948700DF91AE
:10054000CF9108951092F6011092F5011092F401E6
:100550001092F3011092F2011092F1011092F00149
:100560001092EF011092FE011092FD010C942A02EC
:100570009093FC018093FB0181309105E9F124F413
:10058000892BF9F00C942A028230910509F44BC0B2
:100590000397C1F71092F6011092F5011092F40141
:1005A0001092F30182E090E09093F2018093F101C8
:1005B0009093F0018093EF018091000190910101EF
:1005C00016C081E090E09093F6018093F50190933E
:1005D000F4018093F3011092F2011092F101109254
:1005E000F0011092EF018091060190910701909324
:1005F000FE018093FD01C6CF82E090E09093F6016A
:100600008093F5019093F4018093F3011092F2012D
:100610001092F1011092F0011092EF01809104010B
:1006200090910501E4CF1092F6011092F50110921D
:10063000F4011092F30181E090E09093F201809335
:10064000F1019093F0018093EF018091020190916C
:100650000301CDCFFC0101900020E9F73197AF01F4
:10066000481B590BBC018EE092E00C94D400FC01B5
:1006700080819181009711F00C94820B0895FC0108
:1006800024813581232B39F421E0FB0180818823EB
:1006900049F020E007C0808191810E94D10C21E0C7
:1006A000892BB9F7822F08950F931F93CF93DF9370
:1006B000EC0188819981009759F02A813B812617A6
:1006C000370730F081E0DF91CF911F910F910895AE
:1006D0008B016F5F7F4F0E940B0C009759F099833D
:1006E00088831B830A832C813D81232B59F7FC01CE
:1006F0001082E8CF80E0E7CFEF92FF920F931F9335
:10070000CF93DF93EC017B018A01BA010E9454036D
:1007100028813981811114C02115310519F0C901D1
:100720000E94820B198218821D821C821B821A82EF
:10073000CE01DF91CF911F910F91FF90EF9008951F
:100740001D830C83B701C9010E94DA0CF1CFFB01B4
:1007500001900020E9F73197AF01461B570B0C942D
:100760007C03FB01DC0111961C921E9213961C92D5
:100770001E92129715961C921E9214978617970731
:1007800049F0608171816115710521F044815581C5
:100790000C947C030895FC01118210821382128252
:1007A00015821482FB0101900020E9F73197AF0117
:1007B000461B570B0C947C03CF93DF93EC01613005
:1007C000710549F460EA71E0CE010E94CB03CE01CD
:1007D000DF91CF9108956230710519F469EA71E0F3
:1007E000F3CF69E371E0F0CF1F920F920FB60F9233
:1007F00011242F933F938F939F93AF93BF93809137
:100800000A0290910B02A0910C02B0910D0230915E
:10081000090223E0230F2D3758F50196A11DB11DC4
:100820002093090280930A0290930B02A0930C027A
:10083000B0930D028091050290910602A0910702EB
:10084000B09108020196A11DB11D809305029093FD
:100850000602A0930702B0930802BF91AF919F9147
:100860008F913F912F910F900FBE0F901F90189571
:1008700026E8230F0296A11DB11DD2CF1F920F9221
:100880000FB60F9211242F933F934F935F936F9363
:100890007F938F939F93AF93BF93EF93FF938EE0DC
:1008A00092E00E949B01FF91EF91BF91AF919F91C8
:1008B0008F917F916F915F914F913F912F910F9009
:1008C0000FBE0F901F9018951F920F920FB60F92A8
:1008D00011242F938F939F93EF93FF93E0911E0228
:1008E000F0911F028081E0912402F091250282FDA7
:1008F0001BC09081809127028F5F8F732091280207
:10090000821741F0E0912702F0E0E25FFD4F958F02
:1009100080932702FF91EF919F918F912F910F90DC
:100920000FBE0F901F9018958081F4CFCF93DF9367
:10093000CDB7DEB7C156D1090FB6F894DEBF0FBEF2
:10094000CDBF789484B5826084BD84B5816084BD58
:1009500085B5826085BD85B5816085BD80916E005D
:10096000816080936E00109281008091810082608E
:1009700080938100809181008160809381008091CB
:1009800080008160809380008091B10084608093BA
:10099000B1008091B00081608093B00080917A00B6
:1009A000846080937A0080917A00826080937A00DC
:1009B00080917A00816080937A0080917A008068CB
:1009C00080937A001092C100E0911E02F0911F0204
:1009D00082E08083E0911A02F0911B021082E09184
:1009E0001C02F0911D028FEC808310922602E09190
:1009F0002202F091230286E08083E0912002F091B0
:100A00002102808180618083E0912002F0912102A7
:100A1000808188608083E0912002F09121028081B2
:100A200080688083E0912002F091210280818F7D97
:100A3000808388E1EFE0F1E0DE01119601900D92F4
:100A40008A95E1F78E010F5F1F4F9E01275E3F4F92
:100A5000A0963FAF2EAFA097F801819191918F01A1
:100A60009C013327F901E057FF4F449124583F4F31
:100A7000F9012491222399F030E0220F331FF9016C
:100A8000E859FF4FA591B491F901EE58FF4F259118
:100A900034912FB7F894EC914E2B4C932FBF60E01C
:100AA0000E948700A0962EAD3FADA097201731077A
:100AB00099F690E080E00E94B8028AE0482E512C1E
:100AC000612C712C8FB7F89480900A0290900B02E1
:100AD000A0900C02B0900D028FBF8EE092E00E94B9
:100AE0007B01181619060CF0DBC262EE71E0CE0134
:100AF000885A9F4F0E94CB030E942D0197FD27C06B
:100B00008A30910521F189831A826E960EAD1FAD50
:100B10006E970F5F1F4FB801CE01885A9F4F0E94FA
:100B20005403882349F36A962EAD3FAD6A976E96BB
:100B30008EAD9FAD6E97BE016F5F7F4F820F931F8B
:100B40000E94DA0C6E961FAF0EAF6E97D5CF6A96E5
:100B5000CEACDFAC6A97C114D10449F06E960EADED
:100B60001FAD6E9776010115110509F0D6C0BE01C3
:100B7000685A7F4FCE018E5A9F4F0E94B1036DE39A
:100B800071E0CE0101960E94CB034D815E81689693
:100B90008EAD9FAD68978417950780F064968EADF3
:100BA0009FAD6497009751F069817A816115710555
:100BB00029F00E94E10C11E0892B09F010E0CE0130
:100BC00001960E943703112309F460C262EE71E0BE
:100BD000CE0182960E94CB0362EE71E0CE01889630
:100BE0000E94CB0362EE71E0CE018E960E94CB0391
:100BF00062EE71E0CE01C4960E94CB0310E000E0EB
:100C0000F12CE12CD12CC12C68968EAD9FAD68974C
:100C10008017910708F4BDC0F4E0CF16D1040CF0A2
:100C2000B8C08017910709F02BC10E151F0508F4F5
:100C30003EC1A296FFAEEEAEA297780162EE71E0E1
:100C4000CE0101960E94CB0368962EAC3FAC68970C
:100C5000A2962EAD3FADA2972215330530F5E214D2
:100C6000F30408F417016496EEADFFAD6497E20D4E
:100C7000F31DF080108264966EAD7FAD6497A296EE
:100C80004EAD5FADA297640F751F6115710509F434
:100C900013C1CE0101960E94A70364968EAD9FAD4D
:100CA0006497280E391EF101F0821601FFEF2F1A0A
:100CB0003F0A26E02C9D70012D9DF00C112441E08F
:100CC00050E04C0F5D1FE40EF51EF70181A192A1CB
:100CD000009709F400C169817A816115710509F4F1
:100CE000F8C043A154A12D813E814217530708F457
:100CF000F0C00E94DA0C8D819E81F70196A385A336
:100D00001E821D82CE0101960E94370378015FEF9B
:100D1000E51AF50A6101C5C0710117013FEF231AF9
:100D2000330AF7018081082E000C990B0E94530AA8
:100D3000892B91F7015011090C0D1D1DF8018081BF
:100D4000082E000C990B0E94530A892B31F00E15C6
:100D50001F0518F001501109F1CFA8014F5F5F4F37
:100D60004E195F096E965FAF4EAF6E97CE14DF04DB
:100D700020F4B701C6010E94C80C6A96EEADFFAD23
:100D80006A976E968EAD9FAD6E97E80FF91F108231
:100D9000EECEBE01685D7F4FCE01845B9F4F0E9407
:100DA000B10362E471E0CE01845B9F4F0E943F0378
:100DB0008111AEC064E671E0CE01845B9F4F0E945A
:100DC0003F03882309F406C1009103021091040235
:100DD0000130110509F045C1BE01625D7F4FCE01B2
:100DE0008A5B9F4F0E94B103BE016C5C7F4FCE01B6
:100DF000805C9F4F0E94B103BE01605C7F4FCE01BB
:100E0000CA960E94B103BE016A5B7F4FCE01019674
:100E10000E94B10360EA71E0CE01CA960E943F03CE
:100E200081110CC069EA71E0CE01CA960E943F03AD
:100E300010E000E0882311F002E010E06EE671E0BF
:100E4000CE0101960E943F03882309F49BC01093B2
:100E5000F6010093F5010E942A02CE0101960E943C
:100E60003703CE01CA960E943703CE01805C9F4FA4
:100E70000E943703CE018A5B9F4F0E943703F1C067
:100E80000817190730F46496EEADFFAD64973097FC
:100E900059F41092EE01EEEEF1E080818A3309F40C
:100EA000C4CE0F5F1F4FB0CEE00FF11FF6CFA2965A
:100EB0001FAF0EAFA297C2CE89819A81009711F021
:100EC0000E94820B1A8219821E821D821C821B8242
:100ED000E4CE0E94820B26E02C9DF0012D9DF00DAA
:100EE000112441E050E04C0F5D1FE40FF51F898194
:100EF0009A8192A381A38B819C8194A383A38D81EA
:100F00009E8196A385A31A8219821C821B82F8CE29
:100F1000BE01625D7F4FCE0101960E94B1036EE477
:100F200071E0CE0101960E943F03882359F0109290
:100F300004021092030290E080E00E94B802CE0109
:100F400001969BCF63E571E0CE0101960E943F03BD
:100F5000882339F081E090E09093040280930302AB
:100F6000EECF6AE571E0CE0101960E943F0388232F
:100F700031F382E090E090930402809303020E9498
:100F8000A202DDCF64E771E0CE0101960E943F032B
:100F9000882329F01093F4010093F3015CCF6AE7F2
:100FA00071E0CE0101960E943F03882329F010933F
:100FB000F2010093F1014FCF6FE771E0CE0101968E
:100FC0000E943F03882309F446CF1093F001009359
:100FD000EF0141CF64E871E0CE01845B9F4F0E9436
:100FE0003F03882361F0109204021092030281E013
:100FF0008093080190E080E00E94B80232C06CE863
:1010000071E0CE01845B9F4F0E943F03882309F467
:10101000D0C063E971E0CE018E960E943F0391E05B
:10102000811101C090E0909308018111AFC088E167
:10103000EFE0F1E0DE01119601900D928A95E1F763
:101040008E010F5F1F4FF80180810E5F1F4F60E020
:101050000E948700A0962EAD3FADA09720173107C4
:1010600091F7CE01845B9F4F0E943703CE01C49657
:101070000E943703CE018E960E943703CE018896D8
:101080000E943703CE0182960E943703CE018E5A0A
:101090009F4F0E943703CE01885A9F4F0E9437030B
:1010A000109108011123F1F1809103029091040243
:1010B000892BC1F58091FF0190910002A09101025E
:1010C000B0910202A5019401281B390B4A0B5B0B5E
:1010D000DA01C901883E9340A105B10518F180925B
:1010E000FF0190920002A0920102B0920202809150
:1010F000FD019091FE0101979093FE018093FD0107
:10110000181619067CF08091FB019091FC01019664
:1011100064E070E00E94960A9093FC018093FB01CA
:101120000E94B8028091F7019091F801A091F90115
:10113000B091FA01A5019401281B390B4A0B5B0BF6
:10114000DA01C901883E9340A105B10590F0809273
:10115000F7019092F801A092F901B092FA011111F1
:1011600078C083EC91E00E942A0380EE91E00E9417
:101170002A0380E090E0892B09F4A4CC0E94870127
:10118000882309F49FCC0E9400009CCC809103022C
:1011900090910402009729F48091FB019091FC0149
:1011A0002BCF029719F40E94A2025BCF0E942A0261
:1011B00058CF66E971E0CE01845B9F4F0E943F03E8
:1011C000882309F44ECFBE01625D7F4FCE010196A8
:1011D0000E94B1038CA99DA9C12CD12C7601009746
:1011E00019F00E94170A6B016DE971E0CE010196BA
:1011F0000E943F03882329F0D0920701C092060184
:101200009ECE66EA71E0CE0101960E943F038823DC
:1012100029F0D0920501C092040191CE60EB71E0FB
:10122000CE0101960E943F03882329F0D09203014A
:10123000C092020184CE69EB71E0CE0101960E945A
:101240003F03882309F47BCED0920101C0920001B4
:1012500076CE6EE471E0CE0182960E94CB0380913F
:1012600003029091040263E571E08130910521F061
:10127000029731F46AE571E0CE0182960E94A703DD
:1012800083EE91E00E942A036091F5017091F601CE
:10129000CE0101960E94DC03CE0101960E9401015D
:1012A000CE0101960E9437038BEE91E00E942A0343
:1012B0006091F3017091F401CE0101960E94DC036C
:1012C000CE0101960E940101CE0101960E943703D2
:1012D0008BEE91E00E942A036091F1017091F2017E
:1012E000CE0101960E94DC03CE0101960E9401010D
:1012F000CE0101960E9437038BEE91E00E942A03F3
:101300006091EF017091F001CE0101960E94DC0323
:10131000CE0101960E940101CE0101960E94370381
:101320008BEE91E00E942A03C090FD01D090FE0157
:101330000D2C000CEE08FF08F7FE36C06DE28EE0C3
:1013400092E00E94BD0122273327A9012C193D09F3
:101350004E095F0919A28E010F5D1F4FCA01B90125
:10136000A30192010E94AA0A605DF80162938F01B5
:10137000211531054105510589F70115110519F0B0
:10138000C8010E942A038BEE91E00E942A03CE013D
:1013900082960E94010180EE91E00E942A03CE0114
:1013A00082960E943703E5CEA701960119A28E010D
:1013B0000F5D1F4FCA01B901A30192010E94AA0A41
:1013C000605DF80162938F012115310541055105DA
:1013D00089F7D3CFEEE0F2E01382128288EE93E039
:1013E000A0E0B0E084839583A683B7838BE291E08D
:1013F0009183808385EC90E09587848784EC90E0EE
:101400009787868780EC90E0918B808B81EC90E0D1
:10141000938B828B82EC90E0958B848B86EC90E0B2
:10142000978B868B118E128E138E148E08951F93B8
:10143000FC0199278827BC01E89411911032E9F347
:10144000193010F01E30C8F31B3251F01D3249F430
:10145000689406C00E943E0A610F711D811D911D96
:10146000119110531A30B0F33EF490958095709519
:1014700061957F4F8F4F9F4F1F910895592F482F90
:10148000372F262F660F771F881F991F660F771F2C
:10149000881F991F620F731F841F951F660F771F88
:1014A000881F991F089591110C945C0A803219F0DD
:1014B00089508550C8F708959927882708952F9255
:1014C0003F924F925F926F927F928F929F92AF92D4
:1014D000BF92CF92DF92EF92FF920F931F93CF9321
:1014E000DF93CDB7DEB7CA1BDB0B0FB6F894DEBFB8
:1014F0000FBECDBF09942A88398848885F846E84DE
:101500007D848C849B84AA84B984C884DF80EE8027
:10151000FD800C811B81AA81B981CE0FD11D0FB630
:10152000F894DEBF0FBECDBFED01089597FB072EE7
:1015300016F4009407D077FD09D00E94CC0A07FC6E
:1015400005D03EF4909581959F4F089570956195D3
:101550007F4F0895A1E21A2EAA1BBB1BFD010DC0EF
:10156000AA1FBB1FEE1FFF1FA217B307E407F50753
:1015700020F0A21BB30BE40BF50B661F771F881F2F
:10158000991F1A9469F760957095809590959B01C5
:10159000AC01BD01CF010895AA1BBB1B51E107C0DF
:1015A000AA1FBB1FA617B70710F0A61BB70B881FF3
:1015B000991F5A95A9F780959095BC01CD01089582
:1015C000EE0FFF1F0590F491E02D09940F931F93E8
:1015D000CF93DF938230910510F482E090E0E091A8
:1015E000AD02F091AE0230E020E0B0E0A0E0309734
:1015F00099F42115310509F44AC0281B390B243010
:101600003105D8F58A819B816115710589F1FB014E
:1016100093838283FE0111C0408151810281138135
:1016200048175907E0F04817590799F4109761F0E7
:1016300012960C93129713961C933296CF01DF915A
:10164000CF911F910F9108950093AD021093AE02B8
:10165000F4CF2115310551F04217530738F0A90195
:10166000DB019A01BD01DF01F801C1CFEF01F9CF24
:101670009093AE028093AD02CDCFFE01E20FF31F37
:10168000819391932250310939832883D7CF2091B8
:10169000AB023091AC02232B41F420910B0130912D
:1016A0000C013093AC022093AB02209109013091E0
:1016B0000A012115310541F42DB73EB740910D01C6
:1016C00050910E01241B350BE091AB02F091AC025E
:1016D000E217F307A0F42E1B3F0B2817390778F009
:1016E000AC014E5F5F4F2417350748F04E0F5F1F68
:1016F0005093AC024093AB02819391939FCFF0E063
:10170000E0E09CCFCF93DF930097E9F0FC013297A4
:1017100013821282A091AD02B091AE02ED0130E0D1
:1017200020E01097A1F420813181820F931F209136
:10173000AB023091AC022817390709F061C0F09371
:10174000AC02E093AB02DF91CF910895EA01CE178E
:10175000DF07E8F54A815B819E0141155105B1F72C
:10176000E901FB83EA8349915991C40FD51FEC1716
:10177000FD0761F4808191810296840F951FE90134
:1017800099838883828193819B838A83F0E0E0E060
:1017900012968D919C9113970097B9F52D913C91DC
:1017A0001197CD010296820F931F2091AB023091C9
:1017B000AC022817390739F6309751F51092AE026E
:1017C0001092AD02B093AC02A093AB02BCCFD38316
:1017D000C28340815181840F951FC817D90761F4D6
:1017E0004E5F5F4F88819981480F591F5183408315
:1017F0008A819B81938382832115310509F0B0CFC3
:10180000F093AE02E093AD029ECFFD01DC01C0CFAC
:1018100013821282D7CFB0E0A0E0E1E1FCE00C94AB
:10182000610A8C01009751F4CB010E94E60A8C01F9
:10183000C801CDB7DEB7E0E10C947D0AFC01E60FEC
:10184000F71F9C0122503109E217F30708F49DC0ED
:10185000D901CD91DC911197C617D70798F0C53003
:10186000D10530F3CE0104978617970708F3C61BFE
:10187000D70B2297C193D1936D937C93CF010E9494
:10188000820BD6CF5B01AC1ABD0A4C018C0E9D1E9B
:10189000A091AD02B091AE02512C412CF12CE12C63
:1018A000109731F58091AB029091AC0288159905A3
:1018B00009F05CC04616570608F058C0809109012F
:1018C00090910A01009741F48DB79EB740910D01A8
:1018D00050910E01841B950BE817F90708F055C0CD
:1018E000F093AC02E093AB02F90171836083A0CF67
:1018F0008D919C91119712966C90129713967C90F3
:101900001397A815B90559F56C0142E0C40ED11C16
:10191000CA14DB0420F1AC014A195B09DA01129602
:10192000159780F06282738251834083D9016D9351
:101930007C93E114F10471F0D7011396FC93EE93BC
:10194000129776CF22968C0F9D1FF9019183808389
:10195000F301EFCFF093AE02E093AD0269CF4816EA
:10196000590608F42C017D01D3019ACFCB010E94C6
:10197000E60A7C01009749F0AE01B8010E94C80C4C
:10198000C8010E94820B870153CF10E000E050CFC6
:10199000FB01DC0102C001900D9241505040D8F78C
:1019A0000895FB01DC018D91019080190110D9F39C
:1019B000990B0895FB01DC0101900D920020E1F7E5
:1019C0000895FB01DC014150504030F08D910190B1
:1019D000801919F40020B9F7881B990B0895F89421
:1019E000FFCF0300210003001900010000AF0280B7
:1019F00000020003000400050006000700080009BB
:101A0000000A000B000C000D0000000000BD01D416
:101A1000000A010A027B0119016D0152454400438D
:101A20004D443A004348414E47455F4D4F444500C1
:101A30004155544F004D414E55414C00454D455286
:101A400047454E4359005345545F4C49474854005D
:101A50004E4F52544800534F55544800454153543B
:101A60000057455354005245535441525400544F6B
:101A700047474C45004F4E00434F4E464947004EA6
:101A8000535F475245454E004E535F59454C4C4FAE
:101A9000570045575F475245454E0045575F5945EA
:101AA0004C4C4F57005354415455533A4F46462CD3
:101AB0004F46462C4F46462C4F46462C302C4F4620
:101AC00046000D0A005354415455533A002C00006F
:107E0000112484B714BE81FFF0D085E080938100F7
:107E100082E08093C00088E18093C10086E0809377
:107E2000C20080E18093C4008EE0C9D0259A86E02C
:107E300020E33CEF91E0309385002093840096BBD3
:107E4000B09BFECF1D9AA8958150A9F7CC24DD24C4
:107E500088248394B5E0AB2EA1E19A2EF3E0BF2EE7
:107E6000A2D0813461F49FD0082FAFD0023811F036
:107E7000013811F484E001C083E08DD089C08234E0
:107E800011F484E103C0853419F485E0A6D080C0E4
:107E9000853579F488D0E82EFF2485D0082F10E0AE
:107EA000102F00270E291F29000F111F8ED06801E7
:107EB0006FC0863521F484E090D080E0DECF843638
:107EC00009F040C070D06FD0082F6DD080E0C81688
:107ED00080E7D80618F4F601B7BEE895C0E0D1E017
:107EE00062D089930C17E1F7F0E0CF16F0E7DF06D8
:107EF00018F0F601B7BEE89568D007B600FCFDCFD4
:107F0000A601A0E0B1E02C9130E011968C91119780
:107F100090E0982F8827822B932B1296FA010C0160
:107F200087BEE89511244E5F5F4FF1E0A038BF0790
:107F300051F7F601A7BEE89507B600FCFDCF97BE46
:107F4000E89526C08437B1F42ED02DD0F82E2BD052
:107F50003CD0F601EF2C8F010F5F1F4F84911BD097
:107F6000EA94F801C1F70894C11CD11CFA94CF0C13
:107F7000D11C0EC0853739F428D08EE10CD085E9AC
:107F80000AD08FE07ACF813511F488E018D01DD067
:107F900080E101D065CF982F8091C00085FFFCCF94
:107FA0009093C60008958091C00087FFFCCF809118
:107FB000C00084FD01C0A8958091C6000895E0E648
:107FC000F0E098E1908380830895EDDF803219F02E
:107FD00088E0F5DFFFCF84E1DECF1F93182FE3DFCA
:107FE0001150E9F7F2DF1F91089580E0E8DFEE27F6
:047FF000FF270994CA
:027FFE00040479
:00000001FF
